{"abi":[{"type":"constructor","inputs":[{"name":"_token0","type":"address","internalType":"address"},{"name":"_token1","type":"address","internalType":"address"}],"stateMutability":"nonpayable"},{"type":"function","name":"addLiquidity","inputs":[{"name":"amount0","type":"uint256","internalType":"uint256"},{"name":"amount1","type":"uint256","internalType":"uint256"}],"outputs":[],"stateMutability":"nonpayable"},{"type":"function","name":"getReserves","inputs":[],"outputs":[{"name":"","type":"uint256","internalType":"uint256"},{"name":"","type":"uint256","internalType":"uint256"}],"stateMutability":"view"},{"type":"function","name":"getSwapAmountOut","inputs":[{"name":"amountIn","type":"uint256","internalType":"uint256"},{"name":"isToken0In","type":"bool","internalType":"bool"}],"outputs":[{"name":"amountOut","type":"uint256","internalType":"uint256"}],"stateMutability":"view"},{"type":"function","name":"k","inputs":[],"outputs":[{"name":"","type":"uint256","internalType":"uint256"}],"stateMutability":"view"},{"type":"function","name":"reserve0","inputs":[],"outputs":[{"name":"","type":"uint256","internalType":"uint256"}],"stateMutability":"view"},{"type":"function","name":"reserve1","inputs":[],"outputs":[{"name":"","type":"uint256","internalType":"uint256"}],"stateMutability":"view"},{"type":"function","name":"swap","inputs":[{"name":"amountIn","type":"uint256","internalType":"uint256"},{"name":"isToken0In","type":"bool","internalType":"bool"}],"outputs":[],"stateMutability":"nonpayable"},{"type":"function","name":"token0","inputs":[],"outputs":[{"name":"","type":"address","internalType":"contract IERC20"}],"stateMutability":"view"},{"type":"function","name":"token1","inputs":[],"outputs":[{"name":"","type":"address","internalType":"contract IERC20"}],"stateMutability":"view"}],"bytecode":{"object":"0x608060405234801561000f575f5ffd5b50604051611462380380611462833981810160405281019061003191906101bc565b5f73ffffffffffffffffffffffffffffffffffffffff168273ffffffffffffffffffffffffffffffffffffffff161415801561009957505f73ffffffffffffffffffffffffffffffffffffffff168173ffffffffffffffffffffffffffffffffffffffff1614155b6100d8576040517f08c379a00000000000000000000000000000000000000000000000000000000081526004016100cf90610254565b60405180910390fd5b815f5f6101000a81548173ffffffffffffffffffffffffffffffffffffffff021916908373ffffffffffffffffffffffffffffffffffffffff1602179055508060015f6101000a81548173ffffffffffffffffffffffffffffffffffffffff021916908373ffffffffffffffffffffffffffffffffffffffff1602179055505050610272565b5f5ffd5b5f73ffffffffffffffffffffffffffffffffffffffff82169050919050565b5f61018b82610162565b9050919050565b61019b81610181565b81146101a5575f5ffd5b50565b5f815190506101b681610192565b92915050565b5f5f604083850312156101d2576101d161015e565b5b5f6101df858286016101a8565b92505060206101f0858286016101a8565b9150509250929050565b5f82825260208201905092915050565b7f496e76616c696420746f6b656e206164647265737365730000000000000000005f82015250565b5f61023e6017836101fa565b91506102498261020a565b602082019050919050565b5f6020820190508181035f83015261026b81610232565b9050919050565b6111e38061027f5f395ff3fe608060405234801561000f575f5ffd5b5060043610610091575f3560e01c80635a76f25e116100645780635a76f25e1461010c5780639cd441da1461012a578063b4f40c6114610146578063d21220a714610164578063dba605ca1461018257610091565b80630902f1ac146100955780630dfe1681146100b45780632aea6605146100d2578063443cb4bc146100ee575b5f5ffd5b61009d6101b2565b6040516100ab9291906109ef565b60405180910390f35b6100bc6101c2565b6040516100c99190610a90565b60405180910390f35b6100ec60048036038101906100e79190610b0c565b6101e6565b005b6100f6610614565b6040516101039190610b4a565b60405180910390f35b61011461061a565b6040516101219190610b4a565b60405180910390f35b610144600480360381019061013f9190610b63565b610620565b005b61014e6108e3565b60405161015b9190610b4a565b60405180910390f35b61016c6108e9565b6040516101799190610a90565b60405180910390f35b61019c60048036038101906101979190610b0c565b61090e565b6040516101a99190610b4a565b60405180910390f35b5f5f600254600354915091509091565b5f5f9054906101000a900473ffffffffffffffffffffffffffffffffffffffff1681565b5f6101f1838361090e565b90505f8111610235576040517f08c379a000000000000000000000000000000000000000000000000000000000815260040161022c90610bfb565b60405180910390fd5b8115610427575f5f9054906101000a900473ffffffffffffffffffffffffffffffffffffffff1673ffffffffffffffffffffffffffffffffffffffff166323b872dd3330866040518463ffffffff1660e01b815260040161029893929190610c39565b6020604051808303815f875af11580156102b4573d5f5f3e3d5ffd5b505050506040513d601f19601f820116820180604052508101906102d89190610c82565b610317576040517f08c379a000000000000000000000000000000000000000000000000000000000815260040161030e90610cf7565b60405180910390fd5b60015f9054906101000a900473ffffffffffffffffffffffffffffffffffffffff1673ffffffffffffffffffffffffffffffffffffffff1663a9059cbb33836040518363ffffffff1660e01b8152600401610373929190610d15565b6020604051808303815f875af115801561038f573d5f5f3e3d5ffd5b505050506040513d601f19601f820116820180604052508101906103b39190610c82565b6103f2576040517f08c379a00000000000000000000000000000000000000000000000000000000081526004016103e990610d86565b60405180910390fd5b8260025f8282546104039190610dd1565b925050819055508060035f82825461041b9190610e04565b9250508190555061060f565b60015f9054906101000a900473ffffffffffffffffffffffffffffffffffffffff1673ffffffffffffffffffffffffffffffffffffffff166323b872dd3330866040518463ffffffff1660e01b815260040161048593929190610c39565b6020604051808303815f875af11580156104a1573d5f5f3e3d5ffd5b505050506040513d601f19601f820116820180604052508101906104c59190610c82565b610504576040517f08c379a00000000000000000000000000000000000000000000000000000000081526004016104fb90610e81565b60405180910390fd5b5f5f9054906101000a900473ffffffffffffffffffffffffffffffffffffffff1673ffffffffffffffffffffffffffffffffffffffff1663a9059cbb33836040518363ffffffff1660e01b815260040161055f929190610d15565b6020604051808303815f875af115801561057b573d5f5f3e3d5ffd5b505050506040513d601f19601f8201168201806040525081019061059f9190610c82565b6105de576040517f08c379a00000000000000000000000000000000000000000000000000000000081526004016105d590610ee9565b60405180910390fd5b8260035f8282546105ef9190610dd1565b925050819055508060025f8282546106079190610e04565b925050819055505b505050565b60025481565b60035481565b5f8211801561062e57505f81115b61066d576040517f08c379a000000000000000000000000000000000000000000000000000000000815260040161066490610f51565b60405180910390fd5b5f600254118061067e57505f600354115b156106e057600254816106919190610f6f565b6003548361069f9190610f6f565b146106df576040517f08c379a00000000000000000000000000000000000000000000000000000000081526004016106d690610ffa565b60405180910390fd5b5b5f5f9054906101000a900473ffffffffffffffffffffffffffffffffffffffff1673ffffffffffffffffffffffffffffffffffffffff166323b872dd3330856040518463ffffffff1660e01b815260040161073d93929190610c39565b6020604051808303815f875af1158015610759573d5f5f3e3d5ffd5b505050506040513d601f19601f8201168201806040525081019061077d9190610c82565b6107bc576040517f08c379a00000000000000000000000000000000000000000000000000000000081526004016107b390611062565b60405180910390fd5b60015f9054906101000a900473ffffffffffffffffffffffffffffffffffffffff1673ffffffffffffffffffffffffffffffffffffffff166323b872dd3330846040518463ffffffff1660e01b815260040161081a93929190610c39565b6020604051808303815f875af1158015610836573d5f5f3e3d5ffd5b505050506040513d601f19601f8201168201806040525081019061085a9190610c82565b610899576040517f08c379a0000000000000000000000000000000000000000000000000000000008152600401610890906110ca565b60405180910390fd5b8160025f8282546108aa9190610dd1565b925050819055508060035f8282546108c29190610dd1565b925050819055506003546002546108d99190610f6f565b6004819055505050565b60045481565b60015f9054906101000a900473ffffffffffffffffffffffffffffffffffffffff1681565b5f5f83148061091e57505f600454115b61095d576040517f08c379a000000000000000000000000000000000000000000000000000000000815260040161095490611132565b60405180910390fd5b811561099c575f836002546109729190610dd1565b90505f81600454610983919061117d565b9050806003546109939190610e04565b925050506109d1565b5f836003546109ab9190610dd1565b90505f816004546109bc919061117d565b9050806002546109cc9190610e04565b925050505b92915050565b5f819050919050565b6109e9816109d7565b82525050565b5f604082019050610a025f8301856109e0565b610a0f60208301846109e0565b9392505050565b5f73ffffffffffffffffffffffffffffffffffffffff82169050919050565b5f819050919050565b5f610a58610a53610a4e84610a16565b610a35565b610a16565b9050919050565b5f610a6982610a3e565b9050919050565b5f610a7a82610a5f565b9050919050565b610a8a81610a70565b82525050565b5f602082019050610aa35f830184610a81565b92915050565b5f5ffd5b610ab6816109d7565b8114610ac0575f5ffd5b50565b5f81359050610ad181610aad565b92915050565b5f8115159050919050565b610aeb81610ad7565b8114610af5575f5ffd5b50565b5f81359050610b0681610ae2565b92915050565b5f5f60408385031215610b2257610b21610aa9565b5b5f610b2f85828601610ac3565b9250506020610b4085828601610af8565b9150509250929050565b5f602082019050610b5d5f8301846109e0565b92915050565b5f5f60408385031215610b7957610b78610aa9565b5b5f610b8685828601610ac3565b9250506020610b9785828601610ac3565b9150509250929050565b5f82825260208201905092915050565b7f6e756c6c20616d6f756e744f75740000000000000000000000000000000000005f82015250565b5f610be5600e83610ba1565b9150610bf082610bb1565b602082019050919050565b5f6020820190508181035f830152610c1281610bd9565b9050919050565b5f610c2382610a16565b9050919050565b610c3381610c19565b82525050565b5f606082019050610c4c5f830186610c2a565b610c596020830185610c2a565b610c6660408301846109e0565b949350505050565b5f81519050610c7c81610ae2565b92915050565b5f60208284031215610c9757610c96610aa9565b5b5f610ca484828501610c6e565b91505092915050565b7f7472616e7366657246726f6d20746f6b656e2030206661696c656400000000005f82015250565b5f610ce1601b83610ba1565b9150610cec82610cad565b602082019050919050565b5f6020820190508181035f830152610d0e81610cd5565b9050919050565b5f604082019050610d285f830185610c2a565b610d3560208301846109e0565b9392505050565b7f7472616e7366657220746f6b656e2031206661696c65640000000000000000005f82015250565b5f610d70601783610ba1565b9150610d7b82610d3c565b602082019050919050565b5f6020820190508181035f830152610d9d81610d64565b9050919050565b7f4e487b71000000000000000000000000000000000000000000000000000000005f52601160045260245ffd5b5f610ddb826109d7565b9150610de6836109d7565b9250828201905080821115610dfe57610dfd610da4565b5b92915050565b5f610e0e826109d7565b9150610e19836109d7565b9250828203905081811115610e3157610e30610da4565b5b92915050565b7f7472616e7366657246726f6d20746f6b656e2031206661696c656400000000005f82015250565b5f610e6b601b83610ba1565b9150610e7682610e37565b602082019050919050565b5f6020820190508181035f830152610e9881610e5f565b9050919050565b7f7472616e7366657220746f6b656e2030206661696c65640000000000000000005f82015250565b5f610ed3601783610ba1565b9150610ede82610e9f565b602082019050919050565b5f6020820190508181035f830152610f0081610ec7565b9050919050565b7f416d6f756e7473206d7573742062652067726561746572207468616e203000005f82015250565b5f610f3b601e83610ba1565b9150610f4682610f07565b602082019050919050565b5f6020820190508181035f830152610f6881610f2f565b9050919050565b5f610f79826109d7565b9150610f84836109d7565b9250828202610f92816109d7565b91508282048414831517610fa957610fa8610da4565b5b5092915050565b7f496e76616c6964206c697175696469747920726174696f0000000000000000005f82015250565b5f610fe4601783610ba1565b9150610fef82610fb0565b602082019050919050565b5f6020820190508181035f83015261101181610fd8565b9050919050565b7f546f6b656e30207472616e73666572206661696c6564000000000000000000005f82015250565b5f61104c601683610ba1565b915061105782611018565b602082019050919050565b5f6020820190508181035f83015261107981611040565b9050919050565b7f546f6b656e31207472616e73666572206661696c6564000000000000000000005f82015250565b5f6110b4601683610ba1565b91506110bf82611080565b602082019050919050565b5f6020820190508181035f8301526110e1816110a8565b9050919050565b7f496e76616c696420616d6f756e74496e206f72206c69717569646974790000005f82015250565b5f61111c601d83610ba1565b9150611127826110e8565b602082019050919050565b5f6020820190508181035f83015261114981611110565b9050919050565b7f4e487b71000000000000000000000000000000000000000000000000000000005f52601260045260245ffd5b5f611187826109d7565b9150611192836109d7565b9250826111a2576111a1611150565b5b82820490509291505056fea264697066735822122009b7f0104f540a33c9f404049835685413b8b68945b7b0bf55d7211fc54782a264736f6c634300081e0033","linkReferences":{}},"methodIdentifiers":{"addLiquidity(uint256,uint256)":"9cd441da","getReserves()":"0902f1ac","getSwapAmountOut(uint256,bool)":"dba605ca","k()":"b4f40c61","reserve0()":"443cb4bc","reserve1()":"5a76f25e","swap(uint256,bool)":"2aea6605","token0()":"0dfe1681","token1()":"d21220a7"},"id":25}